:08000000803102288731FD2F39
:100F8C00F0007008240091002000911DCE2FCF2F6F
:100F9C00CA2F911124001108080023008E016A3019
:100FAC00210099000E168E128E110E112030240085
:100FBC009500940108008731D327873122000E1148
:100FCC000D30F100FC30890BE92FF10BE92FAB3020
:100FDC008731C627873122000E150D30F100FC3009
:100FEC00890BF62FF10BF62FE42F8031022820000D
:040FFC008731E12F29
:020000040001F9
:04000E00FC09FF3FAB
:00000001FF
