:100000000A128A11EC2FFF1B0D2883137F18831708
:100010000008840A0319FF0A080000308A00040857
:10002000840A820700340D340A3445344534503490
:1000300052344F344D3420345534413452345434D6
:100040002034523465346134643479340D340A34E4
:1000500000340D340A3444344134543441343A3495
:10006000203425343034323458340D340A340034DA
:100070000D340A34573420344F344B340D340A34A1
:0200800000344A
:100732000800831203138C1E9F2BA02B9A2B1A08DE
:10074200080064008001840A0406031900340406C8
:10075200A32BF00083160313981CB02BB12BAB2BE9
:1007620070088312031399000800F00070088312C6
:1007720003178D00831603170C140C18C12BC22B00
:10078200BE2B831203170C080800831603130713EA
:100792008717193099001815181283120313981726
:1007A2008316031398168312031318160800F10018
:1007B2007108831203178D0070088C0083160317CB
:1007C2000C158B1355308D00AA308D008C148B17AD
:1007D2008C18EC2BED2BE92B0C1108008312031360
:1007E2004708C900012C4508B9004608BA0049303B
:1007F200BB004808BC000A128A113A270A128A1161
:1008020083120313490884000A128A110D200A1266
:100812008A11003A031D0E2C0F2CF42BC501C601C0
:1008220008004C3083120313CF004A08D000003076
:10083200D100D201D301D901DA015030C500003014
:10084200C6004B08C7004F30C8000A128A11EF23B6
:100852000A128A118312031352084A07CE004E0865
:100862008400831380010800F401F501701C3A2C06
:100872003B2C412C7208F4070318F50A7308F5079C
:1008820001300310F20DF30DFF3E031D422C013027
:100892000310F10CF00CFF3E031D492C700871048B
:1008A200031D542C552C372C7508F1007408F000E8
:1008B20008006F2C7208FF00710884000A128A1166
:1008C20003200A128A110A128A11AA230A128A1111
:1008D2000130F1070318F20A0030F207720883129E
:1008E2000313FF00710884000A128A1103200A12FE
:1008F2008A11003A031D7E2C7F2C5B2C0800831288
:100902000313A601A7019D2C2508A300A401230817
:10091200F0002408F1002108F2002208F3000A1274
:100922008A11A0260A128A11013083120313A60724
:100932000318A70A0030A70726082007A3002308E8
:10094200840083130008A5002508031DA92CAA2CE6
:10095200852C08000A128A119A230A128A11F700BA
:100962000A128A119A230A128A11F8003A3077027F
:10097200031CBC2CBD2CC52C7708C93EF100FF30EE
:1009820003180030F200CC2C7708D03EF100FF3083
:1009920003180030F2007108F5003A307802031CA7
:1009A200D32CD42CDC2C7808C93EF300FF3003187A
:1009B2000030F400E32C7808D03EF300FF30031837
:1009C2000030F4007308F6007508F00003300310DD
:1009D200F00DFF3E031DE82C0310700D7604080095
:1009E200F901FA01760884008313000884000A12D0
:1009F2008A110D200A128A112A3A031D012D022D95
:100A02002E2D7608840001308007770884000008C4
:100A1200FF00023080077F0884000008F900840A82
:100A22000008FA003F2D7A08F1007908F0000A3038
:100A3200F2000030F3000A128A1135240A128A11D8
:100A420078087007F9000030031801307107FA00C6
:100A5200760884000130831380077608840000083A
:100A620084000A128A110D200A128A11D03EF8005F
:100A72000A307802031C3E2D3F2D142D7A08F70010
:100A82007908F6000800831203136F1C492D4A2DC2
:100A9200552D2A08A0002808A1002908A2000A1240
:100AA2008A1180240A128A1183120313AC1F5A2D51
:100AB2005B2D5D2DAB01AC01AD01AE01772D203078
:100AC200F0000030F100831203132808F200290815
:100AD200F3000A128A11A0260A128A110130831227
:100AE2000313AD070318AE0A0030AE072E08803A92
:100AF200FD002C08803A7D02031D812D2B082D025A
:100B0200031C842D852D602D831203136F188A2DEB
:100B12008B2D962D2A08A0002808A1002908A200E2
:100B22000A128A1180240A128A11080001308312E3
:100B32000313B3006C08B5006B08B4001F30B70094
:100B42000030B80083160313BF01D22DFF30B70760
:100B52000318B80AFF30B8073108B6000F30B605DF
:100B62000A3036020318B62DB72DBA2D3030B6072B
:100B7200BC2D3730B6073708A03E840036088313F1
:100B82008000B301FF30B4070318B50AFF30B50780
:100B9200310E0F39B100320EF039B104320E0F3975
:100BA200B20083123808803AFF0080307F02031DB2
:100BB200DC2D02303702031CDF2DE02D002E8312C4
:100BC200031331083204031DE72DE82DA72D330846
:100BD200031DEC2DED2DA72D3508803AFF00803046
:100BE2007F02031DF62D01303402031CF92DFA2D6C
:100BF200002E83120313EF18FF2D002EA72D831250
:100C020003132F08A8003008A9003708A03EAA0045
:100C12003508AC003408AB000A128A1144250A12C6
:100C22008A1108000A128A11C6230A128A11013097
:100C3200F1008030F2000A128A115A240A128A1133
:100C42000A128A119A230A128A1183120313EA00E2
:100C520057306A0603192E2E2F2E352E77306A064C
:100C6200031D342E352E612E0A128A119A230A127E
:100C72008A110A128A11AB240A128A1183120313EF
:100C8200E9000A128A119A230A128A110A128A1197
:100C9200AB240A128A1183120313E7006708F000DB
:100CA20069080A128A11D8230A128A112630F10021
:100CB2008030F2000A128A115A240A128A11212E55
:100CC20052306A060319662E672E6D2E72306A063E
:100CD200031D6C2E6D2E212E0A128A119A230A12DE
:100CE2008A110A128A11AB240A128A11831203137F
:100CF200E90069080A128A11B6230A128A118312BC
:100D02000313E8005D30CA001730CB006808DB002F
:100D1200DC015B08CC005C08CD000A128A111224A7
:100D22000A128A115D30F1000030F2000A128A11B3
:100D32005A240A128A11212E0A128A1100287208D4
:100D420073040319A52EA62EAC2E72087304031D7C
:100D5200AB2EAC2EB32E70080A128A1199230A12F6
:100D62008A11392F7208093EF40073080318013EF4
:100D7200003EF500740884008317751C8313000875
:100D8200F600840A0008F700760877040319CA2ED1
:100D9200CB2EFD2E7208093EF40073080318013EA3
:100DA200003EF500740884008317751C8313000845
:100DB200F600840A0008F7007208023EF800730881
:100DC2000318013E003EF900780884008317791C5D
:100DD20083130008FA00840A0008FB007B08803AAB
:100DE200FC007708803A7C02031DF92E76087A020D
:100DF2000318FC2EFD2E392F720884008317731CF2
:100E020083130008F400840A0008F5007208023E09
:100E1200F60073080318013E003EF70076088400CE
:100E22008317771C831300087407F9007508F8000C
:100E32000318F80A801F1E2FF8037808FA007908B1
:100E4200840083177A1C8313700880007208023EA4
:100E5200F40073080318013E003EF5007408840094
:100E62008317751C831301308007840A0318800AD4
:100E72000800831203133B088400831300088400D4
:100E82000A128A110D200A128A11253A031D4A2FCD
:100E92004B2FD22F3B08840001308007EB01EC017D
:100EA2000030EF00FF30ED00FF30EE00C3016F2F86
:100EB200EF143B088400013080076F2F0130C3001C
:100EC2006F2F3B088400000884000A128A110D204B
:100ED2000A128A11303A0319592F5F2F4308031956
:100EE200732F742F622F3B08F6003C08F7000A129A
:100EF2008A11F1240A128A11770883120313EC0073
:100F02007608EB00EC1F862F872F8D2F6F14EB09CD
:100F1200EC09EB0A0319EC0A3B088400831300086E
:100F2200C400440884000A128A110D200A128A1190
:100F3200583A031D9D2F9E2FCA2F3C08840000089B
:100F4200FF00023080077F0884000008BF00840A87
:100F52000008C0003B0884004408013E8000BF2F07
:100F62003908AF003A08B0004008B2003F08B100AB
:100F72000A128A1197250A128A11EB2F440884005B
:100F82000A128A110D200A128A11583A0319B12F36
:100F9200CA2F831203133B08840001308313800796
:100FA200EB2F3B088400000884000A128A110D20EE
:100FB2000A128A11BD00BE013D08F0003E08F10090
:100FC2003908F2003A08F3000A128A11A0260A121E
:100FD2008A11CA2F080083120313EB01EC01ED0101
:100FE200EE01EF018313A0308400C0300A128A118F
:0E0FF200A2230A128A1183010A128A11132EF9
:02400E007A3FF7
:00000001FF
