:10000000803102288731F62F6A30210099002300C1
:100010008E0121000E138E1723001F129F119D17B2
:1000200024309E0019309B000800F101F2011C28C9
:100030000130F1070030F23D70087107860087013A
:100040000108031D2428252818287108FF3EF30005
:10005000FF30723DF400F41F2E282F28302841284D
:100060002000111E342835283028700873078600B8
:100070008701010823009A00FF30F307FF30F43DA9
:100080002B282000111E4528462841282030230017
:100090009A000800F800780803194F2850286428AF
:1000A000F31F5328542864287009FA007109FB00D3
:1000B0007209FC007309FD00FA0A0319FB0A03190F
:1000C000FC0A0319FD0A6C287308FD007208FC0085
:1000D0007108FB007008FA00730872047104700460
:1000E000031D732874287D280030F3000030F200CF
:1000F0000030F1000030F000ED289630F90089283A
:100100000130F9070130FD36FC0CFB0CFA0C890BB1
:100110008328FE307D05031D8E288F2880289F2888
:100120000130F9070130FA070030FB3DFC3DFD3D91
:100130000130FD36FC0CFB0CFA0C890B9928FF30C2
:100140007D05031DA428A5289028AF280130F902B9
:100150000130FA35FB0DFC0DFD0D890BA928FC1BA8
:10016000B228B328B928023079020318B828B92870
:10017000A6287918BC28BD28C528FF30FA05FF300D
:10018000FB057F30FC05FF30FD050310F90C7908F5
:10019000F400F501F601F7011830F435F50DF60D10
:1001A000F70D890BCD287408FA047508FB0476084E
:1001B000FC047708FD0478080319DF28E028E52807
:1001C000F31FE328E428E528FD177D08F3007C08E9
:1001D000F2007B08F1007A08F000080020005708C0
:1001E000CD005608CC005508CB005408CA008F310A
:1001F0009127803120004B082100B70020004A08D9
:100200002100B60020005708AF005608AE00550880
:10021000AD005408AC0021003608F0003708F100AA
:10022000890D893B8909F200F300013080314A20B1
:10023000803173082000AB007208AA007108A90081
:100240007008A8008E313A26803120002B08B700B4
:100250002A08B6002908B5002808B4004230B300C7
:10026000C830B2000030B1000030B0008531BB258D
:10027000803120003308CD003208CC003108CB009B
:100280003008CA008F319127803120004B082100AF
:10029000B50020004A082100B400BC01BD013408AB
:1002A0003504031D5429552966293030A00001303A
:1002B000BC070030BD3D3C08A03E860087013030C1
:1002C00081000130BC070030BD3DA2293508B900CE
:1002D0003408B800932921003C08A03E860087011D
:1002E0000A30F0000030F1003908F3003808F2005D
:1002F0008E317D2680317008303E81000A30F0005A
:100300000030F10021003908F3003808F2008E3186
:10031000CE26803171082100B9007008B800013084
:10032000BC070030BD3D3908803A2000D80080303D
:100330005802031D9E290130210038020318A1290B
:10034000A2296B2921003C08A03E860087012E309F
:1003500081000130BC070030BD3D36083704031D65
:10036000B229B329BE293C08A03E8600870130305F
:1003700081000130BC070030BD3DFA293708BB00C1
:100380003608BA00EB2921003C08A03E8600870110
:100390000A30F0000030F1003B08F3003A08F200A8
:1003A0008E317D2680317008303E81000A30F000A9
:1003B0000030F10021003B08F3003A08F2008E31D2
:1003C000CE26803171082100BB007008BA000130D0
:1003D000BC070030BD3D3B08803A2000D80080308B
:1003E0005802031DF629013021003A020318F929A9
:1003F000FA29C32921003C08A03E8600870181011B
:10040000A030F00080311520803108002000510814
:100410008039DB005135E200D01F0F2A102A112A43
:10042000621462080319152A162A262A620A031D75
:100430001A2A1B2A232A0030D1000030D0000030B5
:10044000CF000030CE00D017D1012E2A0030D100CD
:100450000030D0000030CF000030CE004D08803991
:10046000DB064D35E300CC1F362A372A382A6314C1
:10047000630803193C2A3D2A4D2A630A031D412AB9
:10048000422A4A2A0030CD000030CC000030CB0098
:100490000030CA00CC17CD01552A0030CD00003005
:1004A000CC000030CB000030CA004D084C044B0497
:1004B0004A04031D5C2A5D2A742A0030D1000030F2
:1004C000D0000030CF000030CE008030D0047F302C
:1004D000D1045B08D1045108CD005008CC004F086E
:1004E000CB004E08CA00A92B6208031D782A792A7E
:1004F000822A0030CD000030CC000030CB0000302C
:10050000CA00A92B6208D200D3015308D5006308A2
:100510005202D400031CD50354087F3EDC00003097
:10052000553DDD005108DA005008D9004F08D800C9
:100530004E08D7000030D1000030D0000030CF008E
:100540000030CE000030E1000030E0000030DF007D
:100550000030DE00E301E82A63080319B02AB12A5B
:10056000CB2A0130D735D80DD90DDA0D890BB22A37
:100570000130CE35CF0DD00DD10D890BB92AE11F39
:10058000C22AC32AC42A4E140130DE35DF0DE00D25
:10059000E10D890BC52A4D085A02031DD92A4C08C2
:1005A0005902031DD92A4B085802031DD92A4A08AB
:1005B0005702031CDC2ADD2AE62A61174A08D70203
:1005C0004B08D83B4C08D93B4D08DA3B0130E307D8
:1005D0001A306302031CED2AEE2AAC2A5A08590489
:1005E000580457040319F52AF62A0F2B5E140F2B13
:1005F0000130CE35CF0DD00DD10D890BF92AE11F79
:10060000022B032B042B4E140130DE35DF0DE00DE1
:10061000E10D890B052BFF30DC07FF30DD3DD01FDE
:10062000122B132BF82AE301E11F172B182B342B65
:10063000FF305E05D200FF305F05D300FF3060055C
:10064000D4007F306105D50055085404530452048A
:1006500003192B2B2C2B2F2B0130E300342B4E1C9A
:10066000322B332B342B2C2B63080319382B392BCB
:100670005F2B0130CE070030CF3DD03DD13D511C26
:10068000422B432B5F2B4E08D2004F08D30050085B
:10069000D4005108D5000130D600D537D40CD30C86
:1006A000D20CD60B4D2B5508D1005408D00053085E
:1006B000CF005208CE000130DC070030DD3D5D0880
:1006C000803AD20080305202031D682BFF305C025A
:1006D000031C6B2B6C2B792BFF302000DC000030CF
:1006E000DD000030D1000030D0000030CF000030FD
:1006F000CE0020005D08803AD20080305202031DF7
:10070000832B01305C020318862B872B932B200050
:10071000DC01DD010030D1000030D0000030CF001E
:100720000030CE00DB0120005C08E200621C992B47
:100730009A2B9C2BD0179E2B7F30D0056208D200BD
:100740000130D236890BA12B5208D1005B08D104AD
:100750006B2A080073088039F8007335FA00F21F1D
:10076000B22BB32BB42B7A147A080319B82BB92BFC
:10077000C92B7A0A031DBD2BBE2BC62B0030F300FC
:100780000030F2000030F1000030F000F217F30109
:10079000D12B0030F3000030F2000030F1000030C7
:1007A000F00077088039F900790878060319D92B09
:1007B000DA2BDB2B78177735F900F61FE02BE12BCE
:1007C000E22B791479080319E62BE72BF72B790A2A
:1007D000031DEB2BEC2BF42B0030F7000030F60060
:1007E0000030F5000030F400F617F701FF2B003061
:1007F000F7000030F6000030F5000030F4007A0811
:1008000079020318042C052C292C781F082C092C9C
:100810000B2C8030F8067A08FB007908FA007B0878
:10082000F9007008FB007408F0007B08F400710800
:10083000FB007508F1007B08F5007208FB007608E4
:10084000F2007B08F6007308FB007708F3007B08D2
:10085000F700FB0179082000A000A1012108A300F6
:100860007A082002A200031CA3032308803AA400F4
:1008700080302402031D3E2C1A302202031C412C1E
:10088000422C792C7308720471047004031D492CE6
:100890004B2C01304C2C0030FB000030F3000030BA
:1008A000F2000030F1000030F0007908FA007F2CEF
:1008B0007B1C5B2C5C2C672C7B082000A00001308B
:1008C000A036890B602C20080138FB00692C03102E
:1008D000FB0C701C6C2C6D2C6E2CFB170130200057
:1008E000A000F337F20CF10CF00CA00B712C0130CE
:1008F000FA0779087A02031C7E2C7F2C582C781B6F
:10090000822C832CBF2C7A08031D872C882C912CD9
:100910000030F3000030F2000030F1000030F00051
:10092000BA2D7408F0077508F13D7608F23D770896
:10093000F33D731C9C2C9D2C4A2D7B1CA02CA12CC0
:10094000AC2C7B082000A0000130A036890BA52C20
:1009500020080138FB00AE2C0310FB0C701CB12CDE
:10096000B22CB32CFB1701302000A000F337F20C9F
:10097000F10CF00CA00BB62C0130FA074A2D7308CD
:10098000803A2000A0007708803A2002031DD22C74
:1009900076087202031DD22C75087102031DD22C39
:1009A000740870020318D52CD62C0B2DFF30A00034
:1009B000FF30A100FF30A200FF30A30070087402D6
:1009C000A4007108753BA5007208763BA600730869
:1009D000773BA7002408A0072508A13D2608A23DD3
:1009E0002708A33D2308F3002208F2002108F100A4
:1009F0002008F0008030F8067B03FF3AFB007B08FC
:100A0000031D032D042D132D0130F0070030F13D9F
:100A1000F23DF33D132D7408F0027508F13B7608A2
:100A2000F23B7708F33B7308720471047004031DF2
:100A30001A2D1B2D462D7B08031D1F2D202D462D05
:100A40000030F3000030F2000030F1000030F00020
:100A5000BA2D0130F035F10DF20DF30D890B2A2D71
:100A6000FB1F332D342D352D70147B1C382D392D63
:100A70003D2D03147B0DFB003F2D0310FB0D7A0869
:100A80000319432D442D462D0130FA02F21F492D42
:100A90004A2D292DF901FB1F4E2D4F2D5D2D7B0871
:100AA0007F390319542D552D582D0130F9005D2D36
:100AB000701C5B2D5C2D5D2D552D79080319612D62
:100AC000622D8C2D0130F0070030F13DF23DF33DF9
:100AD000731C6B2D6C2D8C2D70082000A0007108EC
:100AE000A1007208A2007308A3000130A400A3377C
:100AF000A20CA10CA00CA40B772D2308F300220854
:100B0000F2002108F1002008F0007A0A0319892D6B
:100B10008A2D8C2D0130FA077A0A0319902D912D18
:100B2000962D7A08031D952D962DA42D0030F300E7
:100B30000030F2000030F1000030F0007A08031DB0
:100B4000A22DA32DA42DF8017A1CA72DA82DAA2D26
:100B5000F217AC2D7F30F2057A082000A00001309A
:100B6000A036890BB02D2008F300F81FB82DB92D41
:100B7000BA2DF3170800200033088039BD00333543
:100B8000C300B21FC42DC52DC62D4314430803193D
:100B9000CA2DCB2DDA2D430A031DCF2DD02DD82DF4
:100BA0000030B3000030B2000030B1000030B000BF
:100BB000B217E22D0030B3000030B2000030B100B7
:100BC0000030B00037088039BD063735C200B61F87
:100BD000EA2DEB2DEC2D421442080319F02DF12DD6
:100BE000002E420A031DF52DF62DFE2D0030B70014
:100BF0000030B6000030B5000030B400B617082E43
:100C00000030B7000030B6000030B5000030B4004E
:100C1000420803190C2E0D2E122E4308031D112E0F
:100C2000122E1B2E0030B3000030B2000030B10095
:100C30000030B000F52F3008F00036088E315A260B
:100C4000853171082000C9007008C8004808B80044
:100C5000B901BA01BB013B08C1003A08C00039081C
:100C6000BF003808BE004908B800B901BA01BB018D
:100C70003B08C7003A08C6003908C5003808C40058
:100C80003108F00035088E315A2685317108200070
:100C9000C9007008C8004808B800B901BA01BB0112
:100CA0003808BE073908BF3D3A08C03D3B08C13D82
:100CB0004908B800B901BA01BB013808C4073908AE
:100CC000C53D3A08C63D3B08C73D3208F000340830
:100CD0008E315A26853171082000C9007008C8007D
:100CE0004808B800B901BA01BB013808BE07390885
:100CF000BF3D3A08C03D3B08C13D4908B800B901B5
:100D0000BA01BB013808C4073908C53D3A08C63DD9
:100D10003B08C73D0830BE35BF0DC00DC10D890B66
:100D20008B2E3108F00034088E315A268531710837
:100D30002000C9007008C8004808BE074908BF3D28
:100D40000030C03DC13D3008F00035088E315A26D4
:100D5000853171082000C9007008C8004808BE0726
:100D60004908BF3D0030C03DC13D0830BE35BF0D14
:100D7000C00DC10D890BB62E3008F00034088E313D
:100D80005A26853171082000C9007008C80048083B
:100D9000BE074908BF3D0030C03DC13D3108F000ED
:100DA00036088E315A26853171082000C900700836
:100DB000C8004808C4074908C53D0030C63DC73DC6
:100DC0003208F00035088E315A268531710820002E
:100DD000C9007008C8004808C4074908C53D00306C
:100DE000C63DC73D3208F00036088E315A2685319F
:100DF00071082000C9007008C8004808B8004908F8
:100E0000B900BA01BB010830B835B90DBA0DBB0D38
:100E1000890B042F3808C4073908C53D3A08C63D78
:100E20003B08C73D3E08B8003F08B9004008BA007B
:100E30004108BB001830BB36BA0CB90CB80C890B92
:100E40001B2F3808C4073908C53D3A08C63D3B0882
:100E5000C73D0830BE35BF0DC00DC10D890B2A2F0F
:100E600043084207B800B901B90D3808823EC800EE
:100E7000FF30393DC900532F0130C435C50DC60DB3
:100E8000C70D890B3D2FC11F462F472F482F4414F4
:100E90000130BE35BF0DC00DC10D890B492FFF308C
:100EA000C807FF30C93DC61F562F572F3C2FC20120
:100EB000C11F5B2F5C2F782FFF303E05B800FF303D
:100EC0003F05B900FF304005BA007F304105BB0047
:100ED0003B083A043904380403196F2F702F732F1D
:100EE0000130C200782F441C762F772F782F702F77
:100EF000420803197C2F7D2FA32F0130C407003037
:100F0000C53DC63DC73D471C862F872FA32F4408EC
:100F1000B8004508B9004608BA004708BB000130D0
:100F2000BC00BB37BA0CB90CB80CBC0B912F3B08FA
:100F3000C7003A08C6003908C5003808C4000130A7
:100F4000C8070030C93D4908803AB80080303802EF
:100F5000031DAC2FFF304802031CAF2FB02FBA2F58
:100F60007F302000C7008030C6000030C500003050
:100F7000C400EB2F20004908803AB80080303802C6
:100F8000031DC42F013048020318C72FC82FD32FC9
:100F900000302000C7000030C6000030C50000301F
:100FA000C400BD01EB2F20004808C300FF30C4057A
:100FB000FF30C5057F30C6050030C705431CE12F53
:100FC000E22FE32FC6174308B8000130B836890B6B
:100FD000E62F3808C7003D08C7044708B300460895
:100FE000B2004508B1004408B00008002000E60146
:100FF000E701E801E901EA01EB0120008F31292F27
:101C620023000C1421000C1401309D00F0309E0062
:101C7200080080302000AB062F08F3002E08F20087
:101C82002D08F1002C08F0002B08F7002A08F600B6
:101C92002908F5002808F4008331AA238E3173083D
:101CA2002000AB007208AA007108A9007008A80001
:101CB2000800F800F401F5017008F200F30172085F
:101CC200F6007308F700781C672E682E6C2E7608D3
:101CD200F4077708F53D0130F635F70D890B6D2EC7
:101CE2000310F80C7808031D772E782E642E7508E1
:101CF200F1007408F0000800F501F31F812E822E16
:101D0200892EF209F309F20A0319F30A0130F500E8
:101D1200F11F8C2E8D2E922EF009F109F00A031973
:101D2200F10A700871040319972E982EBF2E013004
:101D3200F400A22E0130F035F10D890B9C2E0130FA
:101D4200F407F11FA52EA62E9B2E71087302031D08
:101D5200AC2E70087202031CAF2EB02EB42E700887
:101D6200F2027108F33B0130F136F00C890BB52E0B
:101D72000130F402031DBE2EBF2EA62E75080319D4
:101D8200C32EC42EC92EF209F309F20A0319F30A6B
:101D92007308F1007208F0000800F501F11FD22E5D
:101DA200D32EDA2EF009F109F00A0319F10A0130F3
:101DB200F500F31FDD2EDE2EE52EF209F309F20AFD
:101DC2000319F30A0130F506F601F70170087104F0
:101DD2000319EC2EED2E1A2F0130F400F72E0130EC
:101DE200F035F10D890BF12E0130F407F11FFA2EB7
:101DF200FB2EF02E0130F635F70D890BFC2E710803
:101E02007302031D062F70087202031C092F0A2F8A
:101E12000F2F7008F2027108F33B76140130F1368D
:101E2200F00C890B102F0130F402031D192F1A2F09
:101E3200FB2E750803191E2F1F2F242FF609F709F1
:101E4200F60A0319F70A7708F1007608F00008008D
:101E52008E3131268F31803104208F3121009D1443
:101E62009D18342F352F312F1C082000EB00210044
:101E72001B082000EA004430CD007F30CC00C03087
:101E8200CB000030CA004030B300A030B2000030B6
:101E9200B1000030B0006A08F0006B08F100F201F6
:101EA200F301003080314A208F3173082000B700DF
:101EB2007208B6007108B5007008B4008531BB2500
:101EC2008F3120003308D1003208D0003108CF0012
:101ED2003008CE00823106228F3120004D08E90001
:101EE2004C08E8004B08E7004A08E6006908D700FA
:101EF2006808D6006708D5006608D4008031EE2055
:101F02008F3103302000E5008A30E4005530890B20
:101F1200882FE40B882FE50B882F003280310228AE
:101F2200031020004C0D4D0DD3005308031D9A2FB2
:101F32009B2FA42F0030CD000030CC000030CB000E
:101F42000030CA00FF2F4A08CE004B08CF004C08D1
:101F5200D0004D08D1001F30D136D00CCF0CCE0CA2
:101F6200890BAD2F4E08D200CC17FF30CA05FF30C7
:101F7200CB05FF30CC050030CD059630D302D31F00
:101F8200C32FC42FDA2F5308803A973E0318CA2F63
:101F9200CB2FCC2F9B2F0130CD36CC0CCB0CCA0CC7
:101FA200890BCD2F0130D307031DD82FD92FCC2F6A
:101FB200EF2F20305302031CDF2FE02FEA2F9B2F3D
:101FC2000130CA35CB0DCC0DCD0D890BE22F01307E
:101FD200D3025308031DEE2FEF2FE12F52080319EE
:101FE200F32FF42FFF2FCA09CB09CC09CD09CA0A56
:0E1FF2000319CB0A0319CC0A0319CD0A080003
:020000040001F9
:04000E00FC09FF3FAB
:00000001FF
