:04000000803116280D
:100008007E1480310B1D09280A2814280B1183300F
:10001800200095000130F8070030F93DFA3DFB3D1E
:100028007E10090080311828F801F901FA01FB0156
:100038007E1020008031202823008C0121008C01B3
:1000480022000C142100190887396838990019080A
:10005800FC3902389900951295111508F8390238BB
:1000680095000B118B178B160B178330200095000A
:100078000030F7000030F6000030F5000030F400E2
:1000880074087802F0007508793BF10076087A3B2D
:10009800F20077087B3BF3007308031D5E287208A3
:1000A800031D5E28F53070020130713B031C5D288A
:1000B8005E284428031022000C1C0314031865282A
:1000C800682822000C146A2822000C107B08F7000C
:1000D8007A08F6007908F5007808F4004428803199
:0200E8001628D8
:020000040001F9
:04000E00FC09FF3FAB
:00000001FF
