:08000000803102288731FA2F3C
:100E14006A30210099002000911005309C00F930BF
:100E24009B009A010F302500930423000E1121002A
:100E34000E110800F401F501701C212F222F262F1A
:100E44007208F4077308F53D0130F235F30D890B90
:100E5400272F0130F136F00C890B2C2F7008710408
:100E6400031D352F362F1E2F7508F1007408F0006E
:100E74000800FA01FB01760877040319422F432F77
:100E8400702F0130FC004D2F0130F635F70D890B22
:100E9400472F0130FC07F71F502F512F462F0130E9
:100EA400FA35FB0D890B522F77087902031D5C2F4D
:100EB40076087802031C5F2F602F652F7608F802EE
:100EC4007708F93B7A140130F736F60C890B662F54
:100ED4000130FC02031D6F2F702F512F7B08F70088
:100EE4007A08F60008006430F6000030F7002000AD
:100EF4001B08013EF000003003180130F100210806
:100F0400A3002008A200A235A30DA235A30D220838
:100F1400F2002308F30087311C2787317108F90098
:100F24007008F80087313B27873177082000A50037
:100F34007608A40024080339A200A20E2500130891
:100F440020002206CF392206250093002000250820
:100F5400A3002408A200A336A20CA336A20C2208E4
:100F640025009100080087310A27873114302000BA
:100F7400A0000030A100873175278731063020009A
:100F8400A7001330A600AD30890BC62FA60BC62FC1
:100F9400A70BC62F003228302000A0000030A1008B
:100FA40087317527873106302000A7001330A6004B
:100FB400AD30890BDB2FA60BDB2FA70BDB2F003209
:100FC4003C302000A0000030A10087317527873114
:100FD40006302000A7001330A600AD30890BF02F97
:100FE400A60BF02FA70BF02F0032B82F8031022868
:0C0FF4002000A801A90120008731B52FC2
:020000040001F9
:04000E00E409FF3FC3
:00000001FF
