:08000000803102288731EB2F4B
:10000C00F800F401F5017008F200F3017208F60033
:10001C007308F700781C1328142818287608F4079E
:10002C007708F53D0130F635F70D890B19280310CB
:10003C00F80C7808031D2328242810287508F100D3
:10004C007408F00008002000B700BE3086000030B5
:10005C00870020308400003085001730F000160037
:10006C001A00F00B352830303706031D3E283F2888
:10007C0049282008F000F00DF00D21001D08700635
:10008C00833970069D00313020003706031D4F2840
:10009C0050285A282108F000F00DF00D21001D0801
:1000AC007006833970069D00323020003706031D20
:1000BC00602861286B282208F000F00DF00D21005B
:1000CC001D087006833970069D00333020003706FA
:1000DC00031D712872287C282308F000F00DF00D08
:1000EC0021001D087006833970069D0034302000F5
:1000FC003706031D822883288D282408F000F00D74
:10010C00F00D21001D087006833970069D003530F6
:10011C0020003706031D932894289E282508F000FC
:10012C00F00DF00D21001D087006833970069D003E
:10013C00363020003706031DA428A528AF28260832
:10014C00F000F00DF00D21001D08700683397006CB
:10015C009D00373020003706031DB528B628C0286F
:10016C002708F000F00DF00D21001D0870068339F2
:10017C0070069D00383020003706031DC628C7289E
:10018C00D1282808F000F00DF00D21001D08700694
:10019C00833970069D00393020003706031DD7289F
:1001AC00D828E2282908F000F00DF00D21001D08D8
:1001BC007006833970069D00080020005708CD009A
:1001CC005608CC005508CB005408CA008E31ED26D9
:1001DC00803120004B082100B70020004A08210084
:1001EC00B60020005708AF005608AE005508AD0009
:1001FC005408AC0021003608F0003708F100890DD6
:10020C00893B8909F200F30001308F315C27803182
:10021C0073082000AB007208AA007108A9007008CE
:10022C00A8008D317F25803120002B08B7002A08CB
:10023C00B6002908B5002808B4004230B300C83015
:10024C00B2000030B1000030B0008531B0258031F3
:10025C0020003308CD003208CC003108CB00300828
:10026C00CA008E31ED26803120004B082100B500EC
:10027C0020004A082100B400BC01BD01340835043B
:10028C00031D49294A295B293030A0000130BC07E5
:10029C000030BD3D3C08A03E860087013030810017
:1002AC000130BC070030BD3D97293508B900340832
:1002BC00B800882921003C08A03E860087010A303E
:1002CC00F0000030F1003908F3003808F2008D31ED
:1002DC00D42580317008303E81000A30F0000030A7
:1002EC00F10021003908F3003808F2008E31252680
:1002FC00803171082100B9007008B8000130BC07CA
:10030C000030BD3D3908803A2000D80080305802BA
:10031C00031D9329013021003802031896299729CF
:10032C00602921003C08A03E860087012E30810008
:10033C000130BC070030BD3D36083704031DA7292A
:10034C00A829B3293C08A03E8600870130308100E3
:10035C000130BC070030BD3DEF293708BB00360823
:10036C00BA00E02921003C08A03E860087010A3033
:10037C00F0000030F1003B08F3003A08F2008D3138
:10038C00D42580317008303E81000A30F0000030F6
:10039C00F10021003B08F3003A08F2008E312526CB
:1003AC00803171082100BB007008BA000130BC0715
:1003BC000030BD3D3B08803A2000D8008030580208
:1003CC00031DEB29013021003A020318EE29EF2915
:1003DC00B82921003C08A03E860087018101A0308D
:1003EC00F0008D319F2580310800200051088039A4
:1003FC00DB005135E200D01F042A052A062A6214BC
:10040C00620803190A2A0B2A1B2A620A031D0F2AE7
:10041C00102A182A0030D1000030D0000030CF0054
:10042C000030CE00D017D101232A0030D10000308B
:10043C00D0000030CF000030CE004D088039DB06F4
:10044C004D35E300CC1F2B2A2C2A2D2A631463086C
:10045C000319312A322A422A630A031D362A372A03
:10046C003F2A0030CD000030CC000030CB000030F3
:10047C00CA00CC17CD014A2A0030CD000030CC0088
:10048C000030CB000030CA004D084C044B044A0429
:10049C00031D512A522A692A0030D1000030D000A5
:1004AC000030CF000030CE008030D0047F30D1043B
:1004BC005B08D1045108CD005008CC004F08CB008C
:1004CC004E08CA009E2B6208031D6D2A6E2A772ADD
:1004DC000030CD000030CC000030CB000030CA0022
:1004EC009E2B6208D200D3015308D5006308520238
:1004FC00D400031CD50354087F3EDC000030553D6E
:10050C00DD005108DA005008D9004F08D8004E0819
:10051C00D7000030D1000030D0000030CF000030C8
:10052C00CE000030E1000030E0000030DF00003091
:10053C00DE00E301DD2A63080319A52AA62AC02AD6
:10054C000130D735D80DD90DDA0D890BA72A01301A
:10055C00CE35CF0DD00DD10D890BAE2AE11FB72AA8
:10056C00B82AB92A4E140130DE35DF0DE00DE10D4D
:10057C00890BBA2A4D085A02031DCE2A4C0859027F
:10058C00031DCE2A4B085802031DCE2A4A085702D7
:10059C00031CD12AD22ADB2A61174A08D7024B083E
:1005AC00D83B4C08D93B4D08DA3B0130E3071A30F5
:1005BC006302031CE22AE32AA12A5A0859045804AC
:1005CC0057040319EA2AEB2A042B5E14042B01307E
:1005DC00CE35CF0DD00DD10D890BEE2AE11FF72AA8
:1005EC00F82AF92A4E140130DE35DF0DE00DE10D4D
:1005FC00890BFA2AFF30DC07FF30DD3DD01F072BBB
:10060C00082BED2AE301E11F0C2B0D2B292BFF30BE
:10061C005E05D200FF305F05D300FF306005D400CB
:10062C007F306105D5005508540453045204031956
:10063C00202B212B242B0130E300292B4E1C272BA4
:10064C00282B292B212B630803192D2B2E2B542BF4
:10065C000130CE070030CF3DD03DD13D511C372B62
:10066C00382B542B4E08D2004F08D3005008D4001E
:10067C005108D5000130D600D537D40CD30CD20C90
:10068C00D60B422B5508D1005408D0005308CF008C
:10069C005208CE000130DC070030DD3D5D08803AA9
:1006AC00D20080305202031D5D2BFF305C02031C14
:1006BC00602B612B6E2BFF302000DC000030DD0046
:1006CC000030D1000030D0000030CF000030CE0020
:1006DC0020005D08803AD20080305202031D782B36
:1006EC0001305C0203187B2B7C2B882B2000DC0157
:1006FC00DD010030D1000030D0000030CF000030E0
:10070C00CE00DB0120005C08E200621C8E2B8F2BDC
:10071C00912BD017932B7F30D0056208D20001307B
:10072C00D236890B962B5208D1005B08D104602A73
:10073C00080073088039F8007335FA00F21FA72BF4
:10074C00A82BA92B7A147A080319AD2BAE2BBE2B30
:10075C007A0A031DB22BB32BBB2B0030F3000030F5
:10076C00F2000030F1000030F000F217F301C62B5C
:10077C000030F3000030F2000030F1000030F000E7
:10078C0077088039F900790878060319CE2BCF2B1E
:10079C00D02B78177735F900F61FD52BD62BD72B06
:1007AC00791479080319DB2BDC2BEC2B790A031D4C
:1007BC00E02BE12BE92B0030F7000030F600003085
:1007CC00F5000030F400F617F701F42B0030F700B9
:1007DC000030F6000030F5000030F4007A087902A1
:1007EC000318F92BFA2B1E2C781FFD2BFE2B002C3B
:1007FC008030F8067A08FB007908FA007B08F900CB
:10080C007008FB007408F0007B08F4007108FB0012
:10081C007508F1007B08F5007208FB007608F20001
:10082C007B08F6007308FB007708F3007B08F700E1
:10083C00FB0179082000A000A1012108A3007A087F
:10084C002002A200031CA3032308803AA4008030DA
:10085C002402031D332C1A302202031C362C372C95
:10086C006E2C7308720471047004031D3E2C402C12
:10087C000130412C0030FB000030F3000030F2005E
:10088C000030F1000030F0007908FA00742C7B1C69
:10089C00502C512C5C2C7B082000A0000130A03681
:1008AC00890B552C20080138FB005E2C0310FB0C27
:1008BC00701C612C622C632CFB1701302000A000F3
:1008CC00F337F20CF10CF00CA00B662C0130FA078C
:1008DC0079087A02031C732C742C4D2C781B772C02
:1008EC00782CB42C7A08031D7C2C7D2C862C0030A3
:1008FC00F3000030F2000030F1000030F000AF2DBA
:10090C007408F0077508F13D7608F23D7708F33D61
:10091C00731C912C922C3F2D7B1C952C962CA12C6E
:10092C007B082000A0000130A036890B9A2C2008EF
:10093C000138FB00A32C0310FB0C701CA62CA72C5D
:10094C00A82CFB1701302000A000F337F20CF10C9F
:10095C00F00CA00BAB2C0130FA073F2D7308803A3A
:10096C002000A0007708803A2002031DC72C7608CF
:10097C007202031DC72C75087102031DC72C740865
:10098C0070020318CA2CCB2C002DFF30A000FF30B6
:10099C00A100FF30A200FF30A30070087402A40075
:1009AC007108753BA5007208763BA6007308773B6F
:1009BC00A7002408A0072508A13D2608A23D27086A
:1009CC00A33D2308F3002208F2002108F1002008BF
:1009DC00F0008030F8067B03FF3AFB007B08031D18
:1009EC00F82CF92C082D0130F0070030F13DF23DC8
:1009FC00F33D082D7408F0027508F13B7608F23BC4
:100A0C007708F33B7308720471047004031D0F2DF7
:100A1C00102D3B2D7B08031D142D152D3B2D003067
:100A2C00F3000030F2000030F1000030F000AF2D88
:100A3C000130F035F10DF20DF30D890B1F2DFB1F5D
:100A4C00282D292D2A2D70147B1C2D2D2E2D322D69
:100A5C0003147B0DFB00342D0310FB0D7A080319D6
:100A6C00382D392D3B2D0130FA02F21F3E2D3F2D32
:100A7C001E2DF901FB1F432D442D522D7B087F3970
:100A8C000319492D4A2D4D2D0130F900522D701CA2
:100A9C00502D512D522D4A2D79080319562D572DB5
:100AAC00812D0130F0070030F13DF23DF33D731C18
:100ABC00602D612D812D70082000A0007108A1000F
:100ACC007208A2007308A3000130A400A337A20C83
:100ADC00A10CA00CA40B6C2D2308F3002208F2002F
:100AEC002108F1002008F0007A0A03197E2D7F2DD1
:100AFC00812D0130FA077A0A0319852D862D8B2D4D
:100B0C007A08031D8A2D8B2D992D0030F3000030AF
:100B1C00F2000030F1000030F0007A08031D972D30
:100B2C00982D992DF8017A1C9C2D9D2D9F2DF21737
:100B3C00A12D7F30F2057A082000A0000130A036EC
:100B4C00890BA52D2008F300F81FAD2DAE2DAF2D70
:100B5C00F3170800200033088039BD003335C3007B
:100B6C00B21FB92DBA2DBB2D431443080319BF2D49
:100B7C00C02DCF2D430A031DC42DC52DCD2D003006
:100B8C00B3000030B2000030B1000030B000B2173A
:100B9C00D72D0030B3000030B2000030B10000306F
:100BAC00B00037088039BD063735C200B61FDF2DBF
:100BBC00E02DE12D421442080319E52DE62DF52D0B
:100BCC00420A031DEA2DEB2DF32D0030B700003047
:100BDC00B6000030B5000030B400B617FD2D003063
:100BEC00B7000030B6000030B5000030B400420849
:100BFC000319012E022E072E4308031D062E072E65
:100C0C00102E0030B3000030B2000030B1000030C4
:100C1C00B000EA2F3008F00036088031062085310C
:100C2C0071082000C9007008C8004808B800B90154
:100C3C00BA01BB013B08C1003A08C0003908BF002B
:100C4C003808BE004908B800B901BA01BB013B081D
:100C5C00C7003A08C6003908C5003808C400310876
:100C6C00F000350880310620853171082000C9005C
:100C7C007008C8004808B800B901BA01BB013808AF
:100C8C00BE073908BF3D3A08C03D3B08C13D490885
:100C9C00B800B901BA01BB013808C4073908C53D11
:100CAC003A08C63D3B08C73D3208F0003408803195
:100CBC000620853171082000C9007008C80048085A
:100CCC00B800B901BA01BB013808BE073908BF3DED
:100CDC003A08C03D3B08C13D4908B800B901BA010A
:100CEC00BB013808C4073908C53D3A08C63D3B0866
:100CFC00C73D0830BE35BF0DC00DC10D890B802E10
:100D0C003108F0003408803106208531710820004C
:100D1C00C9007008C8004808BE074908BF3D00302C
:100D2C00C03DC13D3008F0003508803106208531CA
:100D3C0071082000C9007008C8004808BE0749089F
:100D4C00BF3D0030C03DC13D0830BE35BF0DC00DAC
:100D5C00C10D890BAB2E3008F00034088031062011
:100D6C00853171082000C9007008C8004808BE070A
:100D7C004908BF3D0030C03DC13D3108F000360888
:100D8C0080310620853171082000C9007008C80028
:100D9C004808C4074908C53D0030C63DC73D320868
:100DAC00F000350880310620853171082000C9001B
:100DBC007008C8004808C4074908C53D0030C63D46
:100DCC00C73D3208F00036088031062085317108A5
:100DDC002000C9007008C8004808B8004908B900CC
:100DEC00BA01BB010830B835B90DBA0DBB0D890B72
:100DFC00F92E3808C4073908C53D3A08C63D3B08EA
:100E0C00C73D3E08B8003F08B9004008BA00410889
:100E1C00BB001830BB36BA0CB90CB80C890B102FB0
:100E2C003808C4073908C53D3A08C63D3B08C73DDC
:100E3C000830BE35BF0DC00DC10D890B1F2F4308E7
:100E4C004207B800B901B90D3808823EC800FF301E
:100E5C00393DC900482F0130C435C50DC60DC70D2D
:100E6C00890B322FC11F3B2F3C2F3D2F44140130D7
:100E7C00BE35BF0DC00DC10D890B3E2FFF30C8070D
:100E8C00FF30C93DC61F4B2F4C2F312FC201C11F44
:100E9C00502F512F6D2FFF303E05B800FF303F050E
:100EAC00B900FF304005BA007F304105BB003B085C
:100EBC003A04390438040319642F652F682F013064
:100ECC00C2006D2F441C6B2F6C2F6D2F652F4208A9
:100EDC000319712F722F982F0130C4070030C53DB4
:100EEC00C63DC73D471C7B2F7C2F982F4408B8006C
:100EFC004508B9004608BA004708BB000130BC00E1
:100F0C00BB37BA0CB90CB80CBC0B862F3B08C7000E
:100F1C003A08C6003908C5003808C4000130C807B3
:100F2C000030C93D4908803AB80080303802031DB2
:100F3C00A12FFF304802031CA42FA52FAF2F7F3009
:100F4C002000C7008030C6000030C5000030C4004F
:100F5C00E02F20004908803AB80080303802031D89
:100F6C00B92F013048020318BC2FBD2FC82F0030F9
:100F7C002000C7000030C6000030C5000030C4009F
:100F8C00BD01E02F20004808C300FF30C405FF302E
:100F9C00C5057F30C6050030C705431CD62FD72F9B
:100FAC00D82FC6174308B8000130B836890BDB2F91
:100FBC003808C7003D08C7044708B3004608B2000C
:100FCC004508B1004408B0000800683084008D303A
:100FDC008500BE3086000030870017308D313E25ED
:100FEC008731E601E701E801E901EA01EB012000A4
:040FFC008E31802E84
:101A7C00FE0012001E00FE0B3F2D00342000911EB4
:101A8C00482D492D442D230019080800013023004E
:101A9C008C0021008C0101309D00F0309E0008006C
:101AAC006A302100990023008E0121000E138E173D
:101ABC0023001F129F119D171D1624309E001930F4
:101ACC009B00080000340134023403340434053420
:101ADC0006340734083409340A340B340C340D340E
:101AEC000E340F34103411341234133414341534BE
:101AFC00163480302000AB062F08F3002E08F200BD
:101B0C002D08F1002C08F0002B08F7002A08F6002D
:101B1C002908F5002808F40083319F238D317308C0
:101B2C002000AB007208AA007108A9007008A80078
:101B3C000800F101F201A62D0130F1070030F23D51
:101B4C0070087107860087010108031DAE2DAF2DAB
:101B5C00A22D7108FF3EF300FF30723DF400F41F1C
:101B6C00B82DB92DBA2DCB2D2000111EBE2DBF2D99
:101B7C00BA2D7008730786008701010823009A00AC
:101B8C00FF30F307FF30F43DB52D2000111ECF2D93
:101B9C00D02DCB2D203023009A000800F501F31F27
:101BAC00D82DD92DE02DF209F309F20A0319F30A05
:101BBC000130F500F11FE32DE42DE92DF009F109B9
:101BCC00F00A0319F10A700871040319EE2DEF2DB8
:101BDC00162E0130F400F92D0130F035F10D890B82
:101BEC00F32D0130F407F11FFC2DFD2DF22D7108A2
:101BFC007302031D032E70087202031C062E072E9F
:101C0C000B2E7008F2027108F33B0130F136F00C28
:101C1C00890B0C2E0130F402031D152E162EFD2DF2
:101C2C00750803191A2E1B2E202EF209F309F20A3D
:101C3C000319F30A7308F1007208F0000800F501AB
:101C4C00F11F292E2A2E312EF009F109F00A031961
:101C5C00F10A0130F500F31F342E352E3C2EF2091B
:101C6C00F309F20A0319F30A0130F506F601F7013C
:101C7C00700871040319432E442E712E0130F400A8
:101C8C004E2E0130F035F10D890B482E0130F40742
:101C9C00F11F512E522E472E0130F635F70D890BC0
:101CAC00532E71087302031D5D2E70087202031C03
:101CBC00602E612E662E7008F2027108F33B7614CA
:101CCC000130F136F00C890B672E0130F402031D44
:101CDC00702E712E522E75080319752E762E7B2EB2
:101CEC00F609F709F60A0319F70A7708F1007608DE
:101CFC00F00008008D314C258E318D3156258E31FA
:101D0C008D3144258E312000E50065088031292075
:101D1C008E3121009D149D18942E952E912E1C0809
:101D2C002000EB0021001B082000EA004430CD000D
:101D3C007F30CC00C030CB000030CA004030B30044
:101D4C00A030B2000030B1000030B0006A08F000E2
:101D5C006B08F100F201F30100308F315C278E31FA
:101D6C0073082000B7007208B6007108B50070083F
:101D7C00B4008531B0258E3120003308D1003208F3
:101D8C00D0003108CF003008CE008131FB218E31DC
:101D9C0020004D08E9004C08E8004B08E7004A0811
:101DAC00E6006908D7006808D6006708D500660801
:101DBC00D4008031E3208E3182302000E400DD300D
:101DCC00890BE62EE40BE62E00328031022803103C
:101DDC0020004C0D4D0DD3005308031DF62EF72E8D
:101DEC00002F0030CD000030CC000030CB00003094
:101DFC00CA005B2F4A08CE004B08CF004C08D0001D
:101E0C004D08D1001F30D136D00CCF0CCE0C890B25
:101E1C00092F4E08D200CC17FF30CA05FF30CB0576
:101E2C00FF30CC050030CD059630D302D31F1F2FC9
:101E3C00202F362F5308803A973E0318262F272F32
:101E4C00282FF72E0130CD36CC0CCB0CCA0C890BBD
:101E5C00292F0130D307031D342F352F282F4B2F5B
:101E6C0020305302031C3B2F3C2F462FF72E013002
:101E7C00CA35CB0DCC0DCD0D890B3E2F0130D302C5
:101E8C005308031D4A2F4B2F3D2F520803194F2F78
:101E9C00502F5B2FCA09CB09CC09CD09CA0A0319EB
:101EAC00CB0A0319CC0A0319CD0A0800F8007808EC
:101EBC000319612F622F762FF31F652F662F762F54
:101ECC007009FA007109FB007209FC007309FD002E
:101EDC00FA0A0319FB0A0319FC0A0319FD0A7E2FDF
:101EEC007308FD007208FC007108FB007008FA0012
:101EFC007308720471047004031D852F862F8F2FB5
:101F0C000030F3000030F2000030F1000030F0003F
:101F1C00FF2F9630F9009B2F0130F9070130FD3669
:101F2C00FC0CFB0CFA0C890B952FFE307D05031D68
:101F3C00A02FA12F922FB12F0130F9070130FA07F2
:101F4C000030FB3DFC3DFD3D0130FD36FC0CFB0C37
:101F5C00FA0C890BAB2FFF307D05031DB62FB72F65
:101F6C00A22FC12F0130F9020130FA35FB0DFC0D07
:101F7C00FD0D890BBB2FFC1BC42FC52FCB2F0230A3
:101F8C0079020318CA2FCB2FB82F7918CE2FCF2F49
:101F9C00D72FFF30FA05FF30FB057F30FC05FF30F3
:101FAC00FD050310F90C7908F400F501F601F701B1
:101FBC001830F435F50DF60DF70D890BDF2F74087D
:101FCC00FA047508FB047608FC047708FD0478080D
:101FDC000319F12FF22FF72FF31FF52FF62FF72FF1
:101FEC00FD177D08F3007C08F2007B08F1007A08ED
:041FFC00F0000800E9
:020000040001F9
:04000E00FC09FF3FAB
:00000001FF
