:04000000803116280D
:100008007E1480310B1D09280A2814280B1183300F
:10001800200095000130A0070030A13DA23DA33D7E
:100028007E100900803118282000A001A101A2013A
:10003800A3017E1020008031212823008C0121009B
:100048008C0122000C148C14210019088739683897
:1000580099001908FC39023899009512951115086C
:10006800F839023895000B118B178B160B17833054
:10007800200095000030F7000030F6000030F50051
:100088000030F4000030FB000030FA000030F900C6
:100098000030F800740820002002F0007508213BA9
:1000A800F1007608223BF2007708233BF30073083F
:1000B800031D69287208031D6928F5307002013094
:1000C800713B031C682869287E28031022000C1C39
:1000D800031403187028732822000C1475282200B2
:1000E8000C1020002308F7002208F6002108F5006C
:1000F8002008F400780820002002F0007908213B4D
:10010800F1007A08223BF2007B08233BF3007308D6
:10011800031D9A287208031D9A287108031D9A283E
:10012800C9307002031C99289A284E28031022000F
:100138008C1C03140318A128A42822008C14A628B8
:1001480022008C1020002308FB002208FA00210856
:0C015800F9002008F8004E28803116281D
:020000040001F9
:04000E00FC09FF3FAB
:00000001FF
