:08000000803102288731FD2F39
:100F7E002000911EC32FC42FBF2F23001908080075
:100F8E00F0002000111ECC2FCD2FC82F700823008B
:100F9E009A0008006A302100990023001F129F1149
:100FAE009D171D1624309E0019309B0008008731B6
:100FBE00D127873123008E0121008E100E138E173C
:100FCE008731BF278731F10071088731C7278731F5
:100FDE0031307106031DF42FF52FF82F22008E14D9
:100FEE00E72F22008E10E72F803102282000873154
:020FFE00DE2FE4
:020000040001F9
:04000E00E409FF3FC3
:00000001FF
