:060000000A128A11FC2F18
:100F6400F0007008831203178D00831603170C1406
:100F74000C18BD2FBE2FBA2F831203170C080800BC
:100F8400F1007108831203178D0070088C0083161A
:100F940003170C158B1355308D00AA308D008C145B
:100FA4008B178C18D62FD72FD32F0C11080083162C
:100FB400031386010F30F00000300A128A11C22791
:100FC4000A128A110D30F300FB30F200F20BE82F05
:100FD400F30BE82FED2F00300A128A11B2270A1200
:100FE4008A11F4007408831203138600F82F0A127E
:0C0FF4008A11002883010A128A11D92FEB
:00000001FF
