:08000000803102288731FB2F3B
:100F800023000C1421000C1401309D00F0309E0051
:100F90000800031022008C1C03140318D02FD32F39
:100FA00022008C14D52F22008C1008008731C02716
:100FB000873123008C1021008C109D149D18E12F87
:100FC000E22FDE2F1C08F1001B08F0000130710237
:100FD000F53003197002031CEE2FEF2FF22F87312B
:100FE000C92787318230F200DE30890BF52FF20BF2
:100FF000F52F80310228F001F10120008731D62F32
:020000040001F9
:04000E00FC09FF3FAB
:00000001FF
