:08000000803102288731FD2F39
:100E0E00092F00000130F0020030F13B700A031D83
:100E1E00142F710A031D142F152F082F0800F4012B
:100E2E00F501701C1B2F1C2F202F7208F40773085E
:100E3E00F53D0130F235F30D890B212F0130F136DE
:100E4E00F00C890B262F70087104031D2F2F302FE5
:100E5E00182F7508F1007408F00008006A302100A0
:100E6E00990023000C1021000C1022000C101430DD
:100E7E0087316327873106302000A8001330A70082
:100E8E00AD30890B482FA70B482FA80B482F0032E7
:100E9E00283087316327873106302000A8001330B1
:100EAE00A700AD30890B592FA70B592FA80B592F1F
:100EBE0000323E2F803102282000A4006430F6005C
:100ECE000030F7002408A000A1012008F00021083E
:100EDE00F100E830F2000330F30087311627873136
:100EEE007108F9007008F8008731A227873177085A
:100EFE002000A6007608A500E830A0000330A1006F
:100F0E0025082002A2002608213BA30022000C1473
:100F1E0020002608F1002508F000873107278731C9
:100F2E0022000C1020002308F1002208F000873167
:100F3E00072787310800FB01F71FA62FA72FAE2F1B
:100F4E00F609F709F60A0319F70A0130FB00F91F33
:100F5E00B12FB22FB92FF809F909F80A0319F90AB6
:100F6E000130FB06FC01FD01760877040319C02F42
:100F7E00C12FEE2F0130FA00CB2F0130F635F70DD1
:100F8E00890BC52F0130FA07F71FCE2FCF2FC42F95
:100F9E000130FC35FD0D890BD02F77087902031D2A
:100FAE00DA2F76087802031CDD2FDE2FE32F76086A
:100FBE00F8027708F93B7C140130F736F60C890BF2
:100FCE00E42F0130FA02031DED2FEE2FCF2F7B08F9
:100FDE000319F22FF32FF82FFC09FD09FC0A031950
:100FEE00FD0A7D08F7007C08F60008002000873116
:020FFE00352F8D
:020000040001F9
:04000E00FC09FF3FAB
:00000001FF
