:08000000803102288731ED2F49
:100E6A00013402340434083423008C01FF30210099
:100E7A008C0023008D0121008D0122008D012000AC
:100E8A008C0120000C1C4A2F4B2F6B2F0730F900C6
:100E9A000030FA000130F0007908073C890A562F21
:100EAA00F035890B552F700822008D001130F000A3
:100EBA003A30890B5E2FF00B5E2F0032FF30F907B4
:100ECA00FF30FA3DFA1F6A2F6B2F4F2F20008C1C20
:100EDA006F2F702FBC2FF501F601F701F801B72F1C
:100EEA000830890B762F00000130F5070030F63DF7
:100EFA000130F7070030F83D7608803AF00080307C
:100F0A007002031D8A2FC8307502031C8D2F8E2F85
:100F1A009C2F031022000D1C03140318952F982FE1
:100F2A0022000D149A2F22000D10F501F6017808FF
:100F3A00803AF00081307002031DA52FF430770249
:100F4A00031CA82FA92FB72F031022008D1C0314EE
:100F5A000318B02FB32F22008D14B52F22008D1045
:100F6A00F701F80120008C18BB2FBC2F752F0C1D20
:100F7A00BF2FC02F462F2308F4002208F3002108B0
:100F8A00F2002008F100FB01FC017B08713E86009B
:100F9A008701010822008D001130F0003A30890BD8
:100FAA00D42FF00BD42F00320130FB070030FC3D68
:100FBA007C08803AF00080307002031DE62F04306E
:100FCA007B02031CE92FEA2FCA2F462F8031022801
:100FDA00873135278731A000873136278731A1002D
:100FEA00873137278731A200873138278731A30015
:060FFA0020008731392FB1
:020000040001F9
:04000E00E409FF3FC3
:00000001FF
