:0400000080312828FB
:100008007E1480312000911C0A280B2826289A018A
:100018000130F0070030F13D91100F307006710487
:10002800031D172818282628031022000C1C031467
:1000380003181F28222822000C14242822000C1040
:10004800F001F1017E10090080312A28F001F10148
:100058007E10200080313E286A30210099008B17DD
:100068000B179114200091107E309C00FF309B00EC
:100078009A01080023000C1021000C1022000C101B
:0C0088008031302080314728803128284A
:020000040001F9
:04000E00E409FF3FC3
:00000001FF
