:08000000803102288731F12F45
:100F6800FE0012001E00FE0BB52F0034C034F93409
:100F7800A434B034993492348234F83480349834B8
:100F880023000D1021000D1023008C0121008C017D
:100F980022000D14FB01FC017B08703E86008701CE
:100FA800010820008C008230FA00DE30890BDA2F2D
:100FB800FA0BDA2F0130FB070030FC3D7C08803A41
:100FC800FA0080307A02031DEB2F0A307B02031CE3
:100FD800EE2FEF2FD02F80310228BA3084008730CF
:100FE800850070308600003087000A308731B427CA
:080FF800873120008731C42F6E
:020000040001F9
:04000E00E409FF3FC3
:00000001FF
