:08000000803102288731FD2F39
:100F74002000911DBE2FBF2FBA2F911124001108FC
:100F8400080023008E016A30210099000E168E128B
:100F94008E150E1524302400950094012000911123
:100FA40008008731C327873123008C0121008C017D
:100FB40022008C018731BA278731F10071082200A1
:100FC4008C008230F000DE30890BE62FF00BE62F28
:100FD40071080319EE2FF02F0130F12F0030220099
:100FE4008C008230F000DE30890BF62FF00BF62FE8
:0C0FF400DC2F8031022820008731D32F31
:020000040001F9
:04000E00FC09FF3FAB
:00000001FF
